:020000040800F2
:1000000000000220CD1500081D1600081D1600086E
:100010001D1600081D1600081D160008000000002F
:100020000000000000000000000000001D16000895
:100030001D160008000000001D16000869110008C8
:100040001D1600081D1600081D1600081D160008C4
:100050001D1600081D1600081D1600081D160008B4
:100060001D1600081D1600081D1600081D160008A4
:100070001D1600081D1600081D1600081D16000894
:100080001D1600081D1600081D16000800000000BF
:100090000000000000000000000000001D16000825
:1000A0001D1600081D1600081D1600081D16000864
:1000B0001D1600081D1600081D1600081D16000854
:1000C0001D1600081D1600081D1600081D16000844
:1000D0001D1600081D1600081D160008000000006F
:1000E0001D1600081D1600081D160008000000005F
:1000F0000000000000000000000000001D160008C5
:10010000000000001D1600081D1600081D1600083E
:1001100000000000000000000000000000000000DF
:100120001D1600081D1600081D1600081D160008E3
:100130001D16000800000000000000000000000084
:100140000000000000000000000000001D16000874
:100150001D1600081D1600081D1600081D160008B3
:100160001D1600081D160008000000000000000019
:10017000000000000000000000000000000000007F
:10018000000000001D160008000000000000000034
:080190001D1600081D160008F1
:10019800044B05481B1A062B02D9044B03B1184718
:1001A800704700BF0F0000200C0000200000000076
:1001B80005490648091A891001EBD171491002D086
:1001C800034B03B1184770470C0000200C000020B7
:1001D8000000000010B5064C237843B9FFF7D8FF9C
:1001E800044B13B10448AFF300800123237010BD02
:1001F8000C000020000000002016000808B5084B7D
:100208001BB108490848AFF300800848036813B9D0
:10021800BDE80840CCE7064B002BF9D09847F7E734
:100228000000000010000020201600080C0000202C
:100238000000000070B50F4E0F4D761BB61018BFAA
:10024800002405D0013455F8043B9847A642F9D15B
:100258000A4E0B4D761B01F0DFF9B61018BF0024CB
:1002680006D0013455F8043B9847A642F9D170BD31
:1002780070BD00BF64160008641600086816000800
:100288006416000853B94AB9002908BF00281CBFE2
:100298004FF0FF314FF0FF3000F07EB9ADF1080CA0
:1002A8006DE904CE00F006F8DDF804E0DDE902238C
:1002B80004B070472DE9F0478C460E460446089D69
:1002C800002B50D18A4217466CD9B2FA82FEBEF191
:1002D800000F0BD0CEF1200420FA04F401FA0EF638
:1002E80044EA060C02FA0EF700FA0EF44FEA174930
:1002F800220CBCFBF9F01FFA87F809FB10C642EA8A
:10030800064600FB08F3B34209D9F61900F1FF329B
:1003180080F02281B34240F21F8102383E44F61A2F
:10032800A2B2B6FBF9F309FB136642EA064403FBE3
:1003380008F8A04509D9E41903F1FF3280F00A81D1
:10034800A04540F20781023B3C44C8EB040443EA61
:1003580000400021002D62D024FA0EF400232C6006
:100368006B60BDE8F0878B4207D9002D55D000217E
:1003780085E841000846BDE8F087B3FA83F1002913
:1003880040F09080B34202D3824200F2F880841A8F
:1003980066EB03060120B446002D40D085E8101016
:1003A800BDE8F08712B90127B7FBF2F7B7FA87FE65
:1003B800BEF1000F35D1F31B4FEA17481FFA87FC2F
:1003C8000121B3FBF8F0220C08FB103642EA06467E
:1003D8000CFB00F3B34207D9F61900F1FF3202D241
:1003E800B34200F2CE801046F61AA2B2B6FBF8F37A
:1003F80008FB136642EA06440CFB03FCA44507D934
:10040800E41903F1FF3202D2A44500F2B580134685
:10041800CCEB040443EA00409CE729462846BDE8A3
:10042800F087CEF1200106FA0EF307FA0EF720FA4C
:1004380001F94FEA1748CE4049EA0309B6FBF8FA32
:100448004FEA194408FB1A661FFA87FC44EA064378
:100458000AFB0CF29A4200FA0EF40AD9DB190AF1E7
:10046800FF3180F087809A4240F28480AAF1020A24
:100478003B449B1A1FFA89F9B3FBF8F108FB1133C7
:1004880049EA034301FB0CF69E4207D9DB1901F147
:10049800FF326BD29E4269D902393B449B1B41EA29
:1004A8000A418EE7C1F1200E22FA0EF48B40234355
:1004B80020FA0EF706FA01F44FEA134C26FA0EF664
:1004C8003C43B6FBFCF9270C0CFB19661FFA83F8B2
:1004D80047EA064609FB08F7B74202FA01F200FAB2
:1004E80001FA08D9F61809F1FF3041D2B7423FD9CD
:1004F800A9F102091E44F61BA0B2B6FBFCF40CFBE2
:10050800146640EA064704FB08F8B84507D9FF18FF
:1005180004F1FF3028D2B84526D9023C1F4444EAEA
:100528000940C8EB0707A0FB02894F4544464E46E1
:1005380014D329D065B3BAEB040367EB060707FAAF
:100548000EFECB40CF404EEA030385E88800002129
:10055800BDE8F0871346F8E61046E0E6B8EB02047B
:1005680069EB03060138E5E70446D8E7114695E745
:100578008146C0E78A467CE7023B3C4448E7084698
:100588000AE702383E442FE7C245E7D33E46D1E7A3
:100598002946BDE8F08700BF704700BF002800F07B
:1005A800B58170B582B00446036813F0010F5AD0C4
:1005B800A04B9B6803F00C03042B0AD09D4B9B684F
:1005C80003F00C03082B0DD19A4B5B6813F4800FD2
:1005D80008D0984B1B6813F4003F44D06368002B85
:1005E80041D195E16368B3F5803F05D1914A13681D
:1005F80043F48033136015E0B3F5A02F09D18D4B78
:100608001A6842F480221A601A6842F480321A602A
:1006180008E0884B1A6822F480321A601A6822F4BB
:1006280080221A6063687BB100F046FE054605E04B
:1006380000F042FE401B642800F26C817D4B1B6871
:1006480013F4003FF4D00EE000F036FE054605E056
:1006580000F032FE401B642800F25E81754B1B6877
:1006680013F4003FF4D1236813F0020F50D0714BFC
:100678009B6813F00C0F0AD06E4B9B6803F00C03B9
:10068800082B16D16B4B5B6813F4800F11D1694BA3
:100698001B6813F0020F03D0E368012B40F03E8182
:1006A800644A136823F0F803216943EAC10313601D
:1006B8002EE0E368D3B101225F4B1A6000F0FCFD25
:1006C800054605E000F0F8FD401B022800F22881ED
:1006D800584B1B6813F0020FF4D0564A136823F0E6
:1006E800F803216943EAC103136011E00022524B69
:1006F8001A6000F0E1FD054605E000F0DDFD401B55
:10070800022800F20F814B4B1B6813F0020FF4D143
:10071800236813F0080F26D0636993B10122474B71
:100728001A6000F0C9FD054605E000F0C5FD401B54
:10073800022800F2F9803F4B5B6F13F0020FF4D0F0
:1007480011E000223D4B1A6000F0B6FD054605E0B9
:1007580000F0B2FD401B022800F2E880354B5B6FC9
:1007680013F0020FF4D1236813F0040F7CD0314B3F
:100778001B6C13F0805F0DD1002301932D4B1A6C75
:1007880042F080521A641B6C03F080530193019B62
:10079800012500E000252A4B1B6813F4807F13D144
:1007A800274A136843F48073136000F085FD0646FA
:1007B80005E000F081FD801B022800F2B980204B83
:1007C8001B6813F4807FF4D0A368012B05D1194A64
:1007D800136F43F00103136714E0052B09D1154B80
:1007E8001A6F42F004021A671A6F42F001021A6780
:1007F80008E0104B1A6F22F001021A671A6F22F0F4
:1008080004021A67A3688BB100F056FD064607E09C
:1008180000F052FD801B41F28833984200F28A8032
:10082800044B1B6F13F0020FF2D017E000F044FDE9
:1008380006460EE00038024000004742800E47425C
:100848000070004000F038FD801B41F28833984268
:1008580072D8404B1B6F13F0020FF3D125B13D4AFC
:10086800136C23F080531364A369002B66D0394AB4
:10087800926802F00C02082A62D0022B33D10022BF
:10088800354B1A6000F018FD054604E000F014FD31
:10089800401B022856D82F4B1B6813F0007FF5D158
:1008A800E269236A1343626A43EA8213A26A52081E
:1008B800013A43EA0243E26A43EA0263254A536083
:1008C8000122254B1A6000F0F7FC044604E000F012
:1008D800F3FC001B022837D81E4B1B6813F0007F5F
:1008E800F5D0002033E000221B4B1A6000F0E4FC36
:1008F800044604E000F0E0FC001B022826D8154B53
:100908001B6813F0007FF5D1002020E0012070471C
:1009180001201CE003201AE0032018E0012016E063
:10092800032014E0032012E0032010E003200EE06F
:1009380003200CE003200AE0032008E0002006E082
:10094800012004E0032002E0032000E0032002B0BD
:1009580070BD00BF003802406000474238B52F4BD9
:100968009B6803F00C03042B55D0082B01D02C48AE
:1009780038BD2A4B5A6802F03F025B6813F4800FB7
:1009880020D0264B5B68C3F38813DC00002569017F
:1009980041EAD4616001041B61EB0505A90141EA44
:1009A8009461A001001B61EB0501C01841F1000131
:1009B8004B0243EAD0534402204619460023FFF76E
:1009C80061FC1FE0154B5B68C3F38813DC0000254E
:1009D800690141EAD4616001041B61EB0505A901C5
:1009E80041EA9461A001001B61EB0501C01841F1C7
:1009F80000018B0243EA90538402204619460023E3
:100A0800FFF740FC054B5B68C3F3014301335B0010
:100A1800B0FBF3F038BD034838BD00BF00380240D2
:100A28000024F40000127A00002800F0978070B5C6
:100A38000446514B1B6803F00F038B4208D2CBB21C
:100A48004D4A1370136803F00F03994240F08880F1
:100A5800236813F0020F17D013F0040F04D0474A8D
:100A6800936843F4E0539360236813F0080F04D0AD
:100A7800424A936843F4604393604048836823F094
:100A8800F002A368134383600D46236813F0010F37
:100A98002FD06268012A05D1384B1B6813F4003F38
:100AA8000ED15FE0931E012B05D8344B1B6813F061
:100AB800007F05D158E0314B1B6813F0020F55D069
:100AC8002E498B6823F0030313438B6000F0F4FB7B
:100AD800064606E000F0F0FB801B41F2883398429E
:100AE80046D8264B9B6803F00C036268B3EB820F71
:100AF800F0D1214B1B6803F00F039D4207D2EAB2E5
:100B08001D4B1A701B6803F00F039D4232D12368F6
:100B180013F0040F06D019498B6823F4E052E368F8
:100B280013438B60236813F0080F07D0134A9368A8
:100B380023F46043216943EAC1039360FFF70EFF82
:100B48000E4B9B68C3F303130D4AD35CD8400D4B7F
:100B58001860002000F064FB002070BD0120704781
:100B6800012070BD012070BD012070BD012070BD45
:100B7800032070BD012070BD003C024000380240D7
:100B88003816000800000020014B1868704700BFA5
:100B98000000002008B5FFF7F7FF044B9B68C3F37C
:100BA8008223034AD35CD84008BD00BF0038024006
:100BB8004816000808B5FFF7E7FF044B9B68C3F326
:100BC8004233034AD35CD84008BD00BF0038024016
:100BD80048160008F0B583B00024BBE00123A34009
:100BE8000A6803EA0205AB4240F0B3804A68022A69
:100BF80001D0122A10D1E608083650F826C004F0B1
:100C0800070297000F22BA402CEA020E0A69BA407E
:100C18004EEA020240F82620026867000326BE401A
:100C2800F64302EA060E4A6802F00302BA404EEAA8
:100C3800020202604A6802F1FF3EBEF1010F03D9C9
:100C4800112A01D0122A10D1826806EA020ECA6857
:100C5800BA404EEA02028260426822EA03034A6806
:100C6800C2F30012A2401A434260C3681E408B6858
:100C7800BB403343C3604B6813F0805F69D00023E7
:100C88000193374B5A6C42F480425A645B6C03F40C
:100C980080430193019BA608B21C324B53F82220D3
:100CA80004F003039B000F279F4022EA07072E4A00
:100CB800904211D002F5806290420FD002F5806216
:100CC80090420DD002F5806290420BD002F580620E
:100CD800904209D1042208E0002206E0012204E043
:100CE800022202E0032200E0072202FA03F33B4358
:100CF80002361C4A42F826301C4B1A68EB4302EABB
:100D080003064F6817F4803F01D045EA0206174AE8
:100D18001660526803EA02064F6817F4003F01D0D4
:100D280045EA0206114A5660926803EA02064F68CD
:100D380017F4801F01D045EA02060C4A9660D26873
:100D480013404E6816F4001F01D045EA0203074A13
:100D5800D36001340F2C7FF641AF03B0F0BD00BF64
:100D6800003802400038014000000240003C0140C9
:100D78000AB181617047090481617047436959402C
:100D8800416170472DE9F843044601680B6923F473
:100D98004052C36813430B610068C36823F41642CA
:100DA80022F00C02A1682369194363691943E369B6
:100DB8000B431343C36021684B6923F44072A36952
:100DC80013434B61E369B3F5004F40F0BB802768DC
:100DD80003F1804303F510439F4203D003F580637A
:100DE8009F4257D1FFF7E6FE00EB800000EB800042
:100DF80065686D00B0FBF5F5AB4EA6FB05356D09D2
:100E08002D01FFF7D7FE00EB800000EB8000636840
:100E18005B00B0FBF3F9FFF7CDFE00EB800000EBC1
:100E2800800063685B00B0FBF3F3A6FB03235B0958
:100E38004FF0640808FB1393DB003233A6FB03234F
:100E48005B095B0003F4F8731D44FFF7B3FE00EB86
:100E5800800000EB800063685B00B0FBF3F9FFF7EC
:100E6800A9FE00EB800000EB800063685B00B0FB2C
:100E7800F3F3A6FB03235B0908FB13984FEAC808A2
:100E880008F13208A6FB0836C6F342163544BD60A1
:100E9800BDE8F883FFF77EFE00EB800000EB8000E2
:100EA80065686D00B0FBF5F57F4EA6FB05356D094D
:100EB8002D01FFF76FFE00EB800000EB80006368F8
:100EC8005B00B0FBF3F9FFF765FE00EB800000EB79
:100ED800800063685B00B0FBF3F3A6FB03235B09A8
:100EE8004FF0640808FB1393DB003233A6FB03239F
:100EF8005B095B0003F4F8731D44FFF74BFE00EB3E
:100F0800800000EB800063685B00B0FBF3F9FFF73B
:100F180041FE00EB800000EB800063685B00B0FBE3
:100F2800F3F3A6FB03235B0908FB13984FEAC808F1
:100F380008F13208A6FB0836C6F342163544BD60F0
:100F4800BDE8F8832668594B9E4203D003F58063B9
:100F58009E4254D1FFF72EFE00EB800000EB80008C
:100F68006568AD00B0FBF5F54F4FA7FB05356D097A
:100F78002D01FFF71FFE00EB800000EB8000636887
:100F88009B00B0FBF3F8FFF715FE00EB800000EBC9
:100F9800800063689B00B0FBF3F3A7FB03235B09A6
:100FA8004FF0640909FB13831B013233A7FB0323AA
:100FB8005B0903F0F0031D44FFF7FCFD00EB800024
:100FC80000EB800063689B00B0FBF3F8FFF7F2FDCD
:100FD80000EB800000EB800063689B00B0FBF3F33C
:100FE800A7FB03235B0909FB13831B013233A7FB10
:100FF8000323C3F343131D44B560BDE8F883FFF72B
:10100800C9FD00EB800000EB80006568AD00B0FB17
:10101800F5F5254FA7FB05356D092D01FFF7BAFD3D
:1010280000EB800000EB800063689B00B0FBF3F8E6
:10103800FFF7B0FD00EB800000EB800063689B00C9
:10104800B0FBF3F3A7FB03235B094FF0640909FB2B
:1010580013831B013233A7FB03235B0903F0F0035F
:101068001D44FFF797FD00EB800000EB80006368EC
:101078009B00B0FBF3F8FFF78DFD00EB800000EB61
:10108800800063689B00B0FBF3F3A7FB03235B09B5
:1010980009FB13831B013233A7FB0323C3F3431359
:1010A8001D44B560BDE8F8831F85EB510010014071
:1010B80068B310B5044690F8393013F0FF0F04D127
:1010C800002380F8383000F081F8242384F8393080
:1010D8002268D36823F40053D3602046FFF752FEFA
:1010E8002268136923F4904313612268536923F03B
:1010F8002A0353612268D36843F40053D360002065
:10110800E063202384F8393084F83A3010BD012098
:10111800704700BF0F49D1F8883043F47003C1F815
:1011280088300D4B1A6842F001021A60002098605E
:101138001A6822F0847222F480321A60074A5A60D0
:101148001A6822F480221A60D8604FF000638B601E
:10115800704700BF00ED00E0003802401030002466
:1011680008B500F09DF800F02DF908BD08B5072076
:1011780000F0BCF8002211466FF00B0000F0C8F830
:10118800002211466FF00A0000F0C2F80022114652
:101198006FF0090000F0BCF8002211466FF004005F
:1011A80000F0B6F8002211466FF0030000F0B0F826
:1011B800002211466FF0010000F0AAF80022114643
:1011C8004FF0FF3000F0A4F808BD00BF0268114BD3
:1011D8009A421ED100B587B0002300930E4B1A6CBB
:1011E80042F400321A641B6C03F400330093009B32
:1011F8000C230193022302930123039303230493F3
:101208000723059301A90548FFF7E4FC07B05DF83B
:1012180004FB7047004400400038024000000240D0
:1012280010B504460E4B18784FF47A73B3FBF0F3FD
:101238000C4A1068B0FBF3F000F09CF858B90F2C7A
:101248000BD8002221464FF0FF3000F061F8064B22
:101258001C60002010BD012010BD012010BD00BF82
:1012680008000020000000200400002008B50B4BF7
:101278001A6842F400721A601A6842F480621A60AE
:101288001A6842F480721A60032000F02FF80020D8
:10129800FFF7C6FFFFF76AFF002008BD003C0240C9
:1012A800034A1368034909780B441360704700BF69
:1012B8002800002008000020014B1868704700BF74
:1012C8002800002038B50446FFF7F6FF0546B4F1BC
:1012D800FF3F02D0044B1B781C44FFF7EDFF401B77
:1012E8008442FAD838BD00BF08000020074AD368F6
:1012F80023F4E0631B041B0C000200F4E0601843B5
:1013080040F0BF6040F40030D060704700ED00E06E
:1013180030B4164BDB68C3F30223C3F10704042C73
:1013280028BF04241D1D062D01D9DD1E00E000255F
:10133800012303FA04F4013C2140A940AB40013BDE
:101348001A400A43002806DA00F00F001201D2B250
:10135800074B1A5407E01201D2B200F1604000F5C1
:10136800614080F8002330BC704700BF00ED00E00A
:1013780014ED00E00138B0F1807F0AD2064B5860C6
:10138800F021064A82F823100020986007221A608C
:1013980070470120704700BF10E000E000ED00E05A
:1013A800042805D1054A136843F004031360704705
:1013B800024A136823F004031360704710E000E04A
:1013C800704700BF08B5FFF7FBFF08BD30B58BB00D
:1013D80000240194214B1A6B42F004021A631A6B21
:1013E80002F004020192019A02941A6B42F0800200
:1013F8001A631A6B02F080020292029A03941A6B23
:1014080042F001021A631A6B02F001020392039A76
:1014180004941A6B42F002021A631B6B03F0020376
:101428000493049B0E4D224620212846FFF7A0FC7A
:101438004FF4005305930B4B0693079405A90A48EC
:10144800FFF7C8FB2023059301230693079408940C
:1014580005A92846FFF7BEFB0BB030BD0038024097
:10146800000002400000211000080240FEE700BF13
:1014780008B50B480B4B03604FF4E133436000237E
:101488008360C36003610C2242618361C361FFF71B
:101498000FFE18B1C4210448FFF7E8FF08BD00BFDC
:1014A8002C000020004400405016000800B595B0FC
:1014B80000230193284A116C41F080511164126C89
:1014C80002F080520192019A0293244A116841F471
:1014D80040411160126802F440420292029A0221CD
:1014E800089101220B9210220C920E910F931092E8
:1014F8004FF4A873119304231293139308A8FFF7CA
:101508004DF818B199211648FFF7B0FF0F23039340
:1015180002210491002305934FF480520692079309
:1015280003A8FFF781FA18B1A7210D48FFF79EFF1E
:10153800FFF72AFB0B4BA3FB00308009FFF71AFFCC
:101548000420FFF72DFF002211464FF0FF30FFF770
:10155800DFFE15B05DF804FB003802400070004063
:1015680050160008D34D621000B587B0FFF77EFE15
:10157800FFF79CFFFFF72AFFFFF77AFF002300938E
:101588000E4B1A6B42F001021A631B6B03F0010346
:101598000093009B202301930123029303930223CA
:1015A800049301A90648FFF715FB20210448FFF71B
:1015B800E5FB6420FFF786FEF7E700BF003802402E
:1015C80000000240DFF834D0002103E00C4B5B58E8
:1015D800435004310B480C4B42189A42F6D30B4A3D
:1015E80002E0002342F8043B094B9A42F9D3FFF783
:1015F80091FDFEF71FFEFFF7B7FF704700000220BE
:101608006C160008000000200C0000200C000020D0
:101618006C000020FEE70000F8B500BFF8BC08BC6D
:101628009E467047F8B500BFF8BC08BC9E46704798
:10163800000000000000000001020304060708097A
:1016480000000000010203045372632F6D61696E8C
:041658002E630000FD
:08165C0060ECFF7F01000000BB
:041664000502000873
:04166800DD01000898
:0C166C000024F400100000000100000049
:04000005080015CD0D
:00000001FF
